:100000000C943E000C9450000C9450000C94500042
:100010000C9450000C9450000C9450000C94500020
:100020000C9492000C9450000C9450000C945000CE
:100030000C9450000C9450000C9450000C94500000
:100040000C9450000C9450000C9450000C945000F0
:100050000C9450000C9450000C9450000C945000E0
:100060000C9450000C9450000C9450000C945200CE
:100070000C9450000C9450000C94500011241FBE9E
:10008000CFEFCDBFDFE3DEBF29E3A0E0B8E301C0DF
:100090001D92AE3FB207E1F70E9450010C948F030E
:1000A0000C9400001F920F920FB60F9211248F93A1
:1000B0009F93EF93FF9380910408882354F59091C8
:1000C0000008E0910638F0E0E656F64C9083809107
:1000D00006388F5F809306389D3021F481E080934D
:1000E000083812C09A3081F480910838813061F468
:1000F0001092083880930938E0910638F0E0E6560F
:10010000F64C108210920638E4E0F8E080818068B6
:100110008083FF91EF919F918F910F900FBE0F9071
:100120001F9018951F920F920FB60F9211248F9364
:100130009F93AF93BF938091023890910338A09121
:100140000438B09105380196A11DB11D8093023885
:1001500090930338A0930438B093053881E08093DE
:100160000B0ABF91AF919F918F910F900FBE0F908F
:100170001F901895EF92FF920F931F93CF93DF93E9
:1001800080910938882309F44BC010920938A09156
:100190000738A53008F044C080919A3994E6A99FA9
:1001A000F0011124E65FF74C8083882389F0EBE9A6
:1001B000F9E384E6A89FD0011124A55FB74C2AEE8D
:1001C00039E381918D93882319F0E217F307C9F77A
:1001D00010920238109203381092043810920538A9
:1001E00062E277E88AE999E30E945A03EC0164E24B
:1001F00077E80E945F03892B71F06BE277E8CE010C
:100200000E945F03892B39F062E377E8CE010E94F8
:100210005F03892B29F4809107388F5F809307381B
:100220008091023890910338A0910438B09105383C
:10023000883C9105A105B10560F1809107388823BC
:1002400041F180EC92E10E94860180910738882379
:10025000D1F00AE018E3E12CF12CC0E0D8E0C801AD
:100260000E94A8018C8186FFFDCF8C8180648C83E5
:100270009FEFE91AF90A0C591F4F8091073890E057
:10028000E816F90664F31092073880E09BE40E94B8
:100290008601DF91CF911F910F91FF90EF9008950C
:1002A00088ED84BF81E080936100E0E0FAE08AE0BD
:1002B00090E086A397A380818F6080838285816090
:1002C00082870E946B0180E09BE40E948601789403
:1002D0000E94BA00FDCFE0E2F4E084E081838683EF
:1002E00088E08283E3E3F4E08081877F8083E0E03D
:1002F000F8E083E298E08087918785818068858334
:1003000080EC868383E0878380E00895BC0180E0F1
:1003100090E00E945F0220E030E040E851E40E945B
:10032000ED029B01AC0160E876E988E19EE40E9461
:10033000BE010E9430026093080870930908089576
:10034000E0E0F8E0948195FFFDCF809302080895E6
:100350000F931F93CF93FC018081882359F08F0165
:10036000C0E00E94A001CF5FF801EC0FF11D808179
:100370008111F7CFCF911F910F9108950E94D20163
:100380000C94B3020E94AC0258F00E94A50240F007
:1003900029F45F3F29F00C949C0251110C94E70260
:1003A0000C94A2020E94C40268F39923B1F355236E
:1003B00091F3951B550BBB27AA2762177307840778
:1003C00038F09F5F5F4F220F331F441FAA1FA9F30E
:1003D00035D00E2E3AF0E0E832D091505040E695FC
:1003E000001CCAF72BD0FE2F29D0660F771F881F5D
:1003F000BB1F261737074807AB07B0E809F0BB0B50
:10040000802DBF01FF2793585F4F3AF09E3F510563
:1004100078F00C949C020C94E7025F3FE4F3983E62
:10042000D4F3869577956795B795F7959F5FC9F74C
:10043000880F911D9695879597F90895E1E0660FCD
:10044000771F881FBB1F621773078407BA0720F046
:10045000621B730B840BBA0BEE1F88F7E0950895AF
:100460000E94CC0288F09F5798F0B92F9927B75176
:10047000B0F0E1F0660F771F881F991F1AF0BA9548
:10048000C9F714C0B13091F00E94E602B1E00895BE
:100490000C94E602672F782F8827B85F39F0B93FB0
:1004A000CCF3869577956795B395D9F73EF49095FB
:1004B0008095709561957F4F8F4F9F4F0895E89479
:1004C00009C097FB3EF490958095709561957F4F9C
:1004D0008F4F9F4F9923A9F0F92F96E9BB2793954A
:1004E000F695879577956795B795F111F8CFFAF45A
:1004F000BB0F11F460FF1BC06F5F7F4F8F4F9F4F8B
:1005000016C0882311F096E911C0772321F09EE8E8
:10051000872F762F05C0662371F096E8862F70E04E
:1005200060E02AF09A95660F771F881FDAF7880F28
:100530009695879597F9089597F99F6780E870E0F9
:1005400060E008959FEF80EC089500240A94161649
:10055000170618060906089500240A9412161306B1
:10056000140605060895092E0394000C11F488233F
:1005700052F0BB0F40F4BF2B11F460FF04C06F5F5B
:100580007F4F8F4F9F4F089557FD9058440F551F31
:1005900059F05F3F71F04795880F97FB991F61F005
:1005A0009F3F79F087950895121613061406551F7C
:1005B000F2CF4695F1DF08C0161617061806991FE8
:1005C000F1CF86957105610508940895E894BB27DD
:1005D00066277727CB0197F908950E9400030C94B2
:1005E000B3020E94A50238F00E94AC0220F09523CD
:1005F00011F00C949C020C94A20211240C94E702BA
:100600000E94C40270F3959FC1F3950F50E0551FEF
:10061000629FF001729FBB27F00DB11D639FAA2757
:10062000F00DB11DAA1F649F6627B00DA11D661FA6
:10063000829F2227B00DA11D621F739FB00DA11DC7
:10064000621F839FA00D611D221F749F3327A00D81
:10065000611D231F849F600D211D822F762F6A2F1D
:1006600011249F5750409AF0F1F088234AF0EE0F82
:10067000FF1FBB1F661F771F881F91505040A9F7AF
:100680009E3F510580F00C949C020C94E7025F3F62
:10069000E4F3983ED4F3869577956795B795F795EB
:1006A000E7959F5FC1F7FE2B880F911D9695879563
:1006B00097F9089540E058E30E9468030895FB010C
:1006C000DC018D91019080190110D9F3990B0895E7
:1006D000FA01A191B081009719F41097E1F0CD01D2
:1006E000DC01CD010D90002011F4C00113C0FB010D
:1006F0002191222319F02015D9F7F3CFFB01219185
:10070000201519F41E92119606C02223C1F70D90F0
:100710000020A1F7D001FA01A193B0830895F894C5
:02072000FFCF09
:100722002C00244750524D43002447504747410074
:07073200244750475341002A
:00000001FF
