:1000000019C028C027C026C025C024C023C022C0D4
:1000100021C020C01FC01EC01DC01CC01BC01AC0F4
:1000200019C018C017C016C015C014C014C012C023
:1000300011C010C011241FBECFEFCDBFDFE3DEBF64
:100040002EE3A0E0BEE301C01D92A53AB207E1F79E
:1000500079D09FC2D5CF1F920F920FB60F92112465
:100060008F939F93EF93FF9380910408882354F517
:1000700090910008E091023EF0E0EB5AF14C908341
:100080008091023E8F5F8093023E9D3021F481E09B
:100090008093033E12C09A3081F48091033E8130F8
:1000A00061F41092033E8093043EE091023EF0E042
:1000B000EB5AF14C10821092023EE4E0F8E08081AD
:1000C00080688083FF91EF919F918F910F900FBE79
:1000D0000F901F9018958091043E882391F1109203
:1000E000043E8091553E843261F58093053EE6E5FD
:1000F000FEE3A6E0BEE325EA3EE381918D938823EB
:1001000019F0E217F307C9F766E975E885E59EE39C
:100110000CD268E975E80DD2892B99F480E895E254
:1001200035D085E09EE350D0E0E0F8E0848186FFA2
:10013000FDCFE0E0F8E084818064848380E09BE48C
:1001400025D0089588ED84BF81E08093610003D0BD
:100150007894C1DFFECFE0E2F4E084E0818386831F
:1001600088E08283E3E3F4E08081877F8083E0E0BE
:10017000F8E083E298E080879187858180688583B5
:1001800080EC868383E0878380E00895BC0180E073
:1001900090E0D0D020E030E040E851E459D19B011C
:1001A000AC0160E876E988E19EE423D094D06093C6
:1001B0000808709309080895E0E0F8E0948195FF3D
:1001C000FDCF8093020808950F931F93CF93FC01F6
:1001D0008081882351F08F01C0E0EEDFCF5FF8010E
:1001E000EC0FF11D80818111F8CFCF911F910F91FC
:1001F00008950E940D010C94EE010E94E70158F051
:100200000E94E00140F029F45F3F29F00C94D701EF
:1002100051110C9422020C94DD010E94FF0168F33D
:100220009923B1F3552391F3951B550BBB27AA27AF
:1002300062177307840738F09F5F5F4F220F331FE9
:10024000441FAA1FA9F335D00E2E3AF0E0E832D0B1
:1002500091505040E695001CCAF72BD0FE2F29D0B4
:10026000660F771F881FBB1F261737074807AB0786
:10027000B0E809F0BB0B802DBF01FF2793585F4FFB
:100280003AF09E3F510578F00C94D7010C9422026D
:100290005F3FE4F3983ED4F3869577956795B795DD
:1002A000F7959F5FC9F7880F911D9695879597F9E8
:1002B0000895E1E0660F771F881FBB1F6217730761
:1002C0008407BA0720F0621B730B840BBA0BEE1F76
:1002D00088F7E09508950E94070288F09F5798F0EC
:1002E000B92F9927B751B0F0E1F0660F771F881F3B
:1002F000991F1AF0BA95C9F714C0B13091F00E9455
:100300002102B1E008950C942102672F782F8827ED
:10031000B85F39F0B93FCCF3869577956795B3957B
:10032000D9F73EF490958095709561957F4F8F4FEA
:100330009F4F0895E89409C097FB3EF490958095EF
:10034000709561957F4F8F4F9F4F9923A9F0F92F9B
:1003500096E9BB279395F695879577956795B79519
:10036000F111F8CFFAF4BB0F11F460FF1BC06F5FFF
:100370007F4F8F4F9F4F16C0882311F096E911C011
:10038000772321F09EE8872F762F05C0662371F032
:1003900096E8862F70E060E02AF09A95660F771F46
:1003A000881FDAF7880F9695879597F9089597F93A
:1003B0009F6780E870E060E008959FEF80EC08950B
:1003C00000240A9416161706180609060895002434
:1003D0000A9412161306140605060895092E0394AE
:1003E000000C11F4882352F0BB0F40F4BF2B11F422
:1003F00060FF04C06F5F7F4F8F4F9F4F089557FD81
:100400009058440F551F59F05F3F71F04795880F82
:1004100097FB991F61F09F3F79F087950895121619
:1004200013061406551FF2CF4695F1DF08C01616C5
:1004300017061806991FF1CF869571056105089476
:100440000895E894BB2766277727CB0197F908958D
:100450000E943B020C94EE010E94E00138F00E94E1
:10046000E70120F0952311F00C94D7010C94DD01E5
:1004700011240C9422020E94FF0170F3959FC1F396
:10048000950F50E0551F629FF001729FBB27F00D42
:10049000B11D639FAA27F00DB11DAA1F649F662797
:1004A000B00DA11D661F829F2227B00DA11D621FE6
:1004B000739FB00DA11D621F839FA00D611D221FA0
:1004C000749F3327A00D611D231F849F600D211D84
:1004D000822F762F6A2F11249F5750409AF0F1F007
:1004E00088234AF0EE0FFF1FBB1F661F771F881F70
:1004F00091505040A9F79E3F510580F00C94D701D0
:100500000C9422025F3FE4F3983ED4F386957795EE
:100510006795B795F795E7959F5FC1F7FE2B880F15
:10052000911D9695879597F9089540E05EE30AD06E
:100530000895FB01DC018D91019080190110D9F320
:10054000990B0895FA01A191B081009719F41097C1
:10055000E1F0CD01DC01CD010D90002011F4C001CE
:1005600013C0FB012191222319F02015D9F7F3CFF5
:10057000FB012191201519F41E92119606C0222329
:10058000C1F70D900020A1F7D001FA01A193B0832B
:060590000895F894FFCF6E
:090596002C00244750524D430093
:00000001FF
