:1000000019C028C027C026C025C024C023C022C0D4
:1000100062C020C01FC01EC01DC01CC01BC01AC0B3
:1000200019C018C017C016C015C014C014C012C023
:1000300011C010C011241FBECFEFCDBFDFE3DEBF64
:100040002FE3A0E0BEE301C01D92AE3FB207E1F78F
:10005000F9D02EC3D5CF1F920F920FB60F92112455
:100060008F939F93EF93FF9380910408882354F517
:1000700090910008E091063EF0E0E656F04C908347
:100080008091063E8F5F8093063E9D3021F481E093
:100090008093083E12C09A3081F48091083E8130EE
:1000A00061F41092083E8093093EE091063EF0E034
:1000B000E656F04C10821092063EE4E0F8E08081B3
:1000C00080688083FF91EF919F918F910F900FBE79
:1000D0000F901F9018951F920F920FB60F92112438
:1000E0008F939F93AF93BF938091023E9091033E75
:1000F000A091043EB091053E0196A11DB11D8093D3
:10010000023E9093033EA093043EB093053E81E0EF
:1001100080930B0ABF91AF919F918F910F900FBE6B
:100120000F901F901895EF92FF920F931F93CF930C
:10013000DF938091093E882309F447C01092093E5D
:10014000A091073EA53008F040C080919A3F94E608
:10015000A99FF0011124E65FF14C8083882389F088
:10016000EBE9FFE384E6A89FD0011124A55FB14C21
:100170002AEE3FE381918D93882319F0E217F3076C
:10018000C9F71092023E1092033E1092043E109264
:10019000053E64EB76E88AE99FE356D2EC0166EB14
:1001A00076E856D2892B61F06DEB76E8CE0150D21D
:1001B000892B31F064EC76E8CE014AD2892B29F400
:1001C0008091073E8F5F8093073E8091023E909121
:1001D000033EA091043EB091053E883C9105A105E7
:1001E000B10548F18091073E882329F180EC92E126
:1001F0005CD08091073E8823C9F00AE01EE3E12C21
:10020000F12CC0E0D8E0C8016ED08C8186FFFDCF14
:100210008C8180648C839FEFE91AF90A0C591F4F77
:100220008091073E90E0E816F9066CF31092073EC5
:1002300080E09BE43AD0DF91CF911F910F91FF9026
:10024000EF90089588ED84BF81E080936100E0E045
:10025000FAE08AE090E086A397A380818F60808394
:1002600082858160828706D080E09BE41ED07894EE
:100270005ADFFECFE0E2F4E084E08183868388E009
:100280008283E3E3F4E08081877F8083E0E0F8E02D
:1002900083E298E08087918785818068858380EC00
:1002A000868383E0878380E00895BC0180E090E04E
:1002B000D0D020E030E040E851E459D19B01AC01BE
:1002C00060E876E988E19EE423D094D06093080842
:1002D000709309080895E0E0F8E0948195FFFDCF60
:1002E0008093020808950F931F93CF93FC018081A0
:1002F000882351F08F01C0E0EEDFCF5FF801EC0FF3
:10030000F11D80818111F8CFCF911F910F91089538
:100310000E949C010C947D020E94760258F00E947B
:100320006F0240F029F45F3F29F00C9466025111EE
:100330000C94B1020C946C020E948E0268F3992313
:10034000B1F3552391F3951B550BBB27AA276217D1
:100350007307840738F09F5F5F4F220F331F441FDE
:10036000AA1FA9F335D00E2E3AF0E0E832D0915012
:100370005040E695001CCAF72BD0FE2F29D0660FFF
:10038000771F881FBB1F261737074807AB07B0E842
:1003900009F0BB0B802DBF01FF2793585F4F3AF048
:1003A0009E3F510578F00C9466020C94B1025F3FB9
:1003B000E4F3983ED4F3869577956795B795F795CE
:1003C0009F5FC9F7880F911D9695879597F90895B6
:1003D000E1E0660F771F881FBB1F62177307840752
:1003E000BA0720F0621B730B840BBA0BEE1F88F761
:1003F000E09508950E94960288F09F5798F0B92FD3
:100400009927B751B0F0E1F0660F771F881F991F49
:100410001AF0BA95C9F714C0B13091F00E94B00239
:10042000B1E008950C94B002672F782F8827B85F49
:1004300039F0B93FCCF3869577956795B395D9F7A1
:100440003EF490958095709561957F4F8F4F9F4FAB
:100450000895E89409C097FB3EF4909580957095B7
:1004600061957F4F8F4F9F4F9923A9F0F92F96E900
:10047000BB279395F695879577956795B795F11175
:10048000F8CFFAF4BB0F11F460FF1BC06F5F7F4F12
:100490008F4F9F4F16C0882311F096E911C0772324
:1004A00021F09EE8872F762F05C0662371F096E82D
:1004B000862F70E060E02AF09A95660F771F881FFC
:1004C000DAF7880F9695879597F9089597F99F67BA
:1004D00080E870E060E008959FEF80EC08950024CC
:1004E0000A941616170618060906089500240A9499
:1004F00012161306140605060895092E0394000C1F
:1005000011F4882352F0BB0F40F4BF2B11F460FFAD
:1005100004C06F5F7F4F8F4F9F4F089557FD9058D6
:10052000440F551F59F05F3F71F04795880F97FBB7
:10053000991F61F09F3F79F0879508951216130671
:100540001406551FF2CF4695F1DF08C016161706A0
:100550001806991FF1CF86957105610508940895D5
:10056000E894BB2766277727CB0197F908950E9467
:10057000CA020C947D020E946F0238F00E9476023B
:1005800020F0952311F00C9466020C946C02112457
:100590000C94B1020E948E0270F3959FC1F3950FE7
:1005A00050E0551F629FF001729FBB27F00DB11DF7
:1005B000639FAA27F00DB11DAA1F649F6627B00D87
:1005C000A11D661F829F2227B00DA11D621F739F70
:1005D000B00DA11D621F839FA00D611D221F749F7E
:1005E0003327A00D611D231F849F600D211D822FC5
:1005F000762F6A2F11249F5750409AF0F1F08823EC
:100600004AF0EE0FFF1FBB1F661F771F881F915018
:100610005040A9F79E3F510580F00C9466020C945F
:10062000B1025F3FE4F3983ED4F3869577956795E2
:10063000B795F795E7959F5FC1F7FE2B880F911D42
:100640009695879597F9089540E05EE30AD008955E
:10065000FB01DC018D91019080190110D9F3990BF8
:100660000895FA01A191B081009719F41097E1F073
:10067000CD01DC01CD010D90002011F4C00113C0AB
:10068000FB012191222319F02015D9F7F3CFFB01AB
:100690002191201519F41E92119606C02223C1F74C
:1006A0000D900020A1F7D001FA01A193B083089525
:0406B000F894FFCFEC
:1006B4002C00244750524D430024475047474100E3
:0706C4002447504753410099
:00000001FF
